{
  "contractName": "Legendary",
  "abi": [
    {
      "inputs": [],
      "stateMutability": "nonpayable",
      "type": "constructor"
    },
    {
      "inputs": [
        {
          "internalType": "address",
          "name": "solsMarketplace",
          "type": "address"
        }
      ],
      "name": "setSolsMarketplaceToLegen",
      "outputs": [],
      "stateMutability": "nonpayable",
      "type": "function"
    },
    {
      "inputs": [
        {
          "internalType": "uint256",
          "name": "new_nft_id",
          "type": "uint256"
        },
        {
          "components": [
            {
              "internalType": "bool",
              "name": "resell",
              "type": "bool"
            },
            {
              "internalType": "uint256",
              "name": "product_price",
              "type": "uint256"
            },
            {
              "internalType": "uint256",
              "name": "product_unit",
              "type": "uint256"
            },
            {
              "internalType": "uint256",
              "name": "ticket_price",
              "type": "uint256"
            },
            {
              "internalType": "uint256",
              "name": "ticket_unit",
              "type": "uint256"
            },
            {
              "internalType": "uint256",
              "name": "ticket_available",
              "type": "uint256"
            },
            {
              "internalType": "uint256",
              "name": "royalty",
              "type": "uint256"
            }
          ],
          "internalType": "struct Legendary.legen_param",
          "name": "_legen_param",
          "type": "tuple"
        },
        {
          "internalType": "address",
          "name": "creator",
          "type": "address"
        },
        {
          "internalType": "bool",
          "name": "sold",
          "type": "bool"
        }
      ],
      "name": "insertLegen",
      "outputs": [],
      "stateMutability": "nonpayable",
      "type": "function"
    },
    {
      "inputs": [
        {
          "internalType": "uint256",
          "name": "nft_id",
          "type": "uint256"
        },
        {
          "internalType": "bool",
          "name": "sold",
          "type": "bool"
        }
      ],
      "name": "updateSold",
      "outputs": [],
      "stateMutability": "nonpayable",
      "type": "function"
    },
    {
      "inputs": [
        {
          "internalType": "uint256",
          "name": "nft_id",
          "type": "uint256"
        },
        {
          "internalType": "uint256",
          "name": "index",
          "type": "uint256"
        },
        {
          "internalType": "address",
          "name": "_owner",
          "type": "address"
        }
      ],
      "name": "updateOwner",
      "outputs": [],
      "stateMutability": "nonpayable",
      "type": "function"
    },
    {
      "inputs": [
        {
          "internalType": "uint256",
          "name": "nft_id",
          "type": "uint256"
        },
        {
          "internalType": "address",
          "name": "_buyer",
          "type": "address"
        }
      ],
      "name": "updateBuyer",
      "outputs": [],
      "stateMutability": "nonpayable",
      "type": "function"
    },
    {
      "inputs": [
        {
          "internalType": "uint256",
          "name": "nft_id",
          "type": "uint256"
        },
        {
          "internalType": "address",
          "name": "owner",
          "type": "address"
        }
      ],
      "name": "deleteOwner",
      "outputs": [],
      "stateMutability": "nonpayable",
      "type": "function"
    },
    {
      "inputs": [
        {
          "internalType": "uint256",
          "name": "nft_id",
          "type": "uint256"
        }
      ],
      "name": "fetchLegen",
      "outputs": [
        {
          "components": [
            {
              "internalType": "bool",
              "name": "resell",
              "type": "bool"
            },
            {
              "internalType": "uint256",
              "name": "product_price",
              "type": "uint256"
            },
            {
              "internalType": "uint256",
              "name": "product_unit",
              "type": "uint256"
            },
            {
              "internalType": "uint256",
              "name": "ticket_price",
              "type": "uint256"
            },
            {
              "internalType": "uint256",
              "name": "ticket_unit",
              "type": "uint256"
            },
            {
              "internalType": "uint256",
              "name": "ticket_available",
              "type": "uint256"
            },
            {
              "internalType": "uint256",
              "name": "royalty",
              "type": "uint256"
            },
            {
              "internalType": "address",
              "name": "creator",
              "type": "address"
            },
            {
              "internalType": "bool",
              "name": "sold",
              "type": "bool"
            }
          ],
          "internalType": "struct Legendary.legendary",
          "name": "",
          "type": "tuple"
        }
      ],
      "stateMutability": "view",
      "type": "function"
    },
    {
      "inputs": [
        {
          "internalType": "uint256",
          "name": "nft_id",
          "type": "uint256"
        },
        {
          "internalType": "address",
          "name": "_owner",
          "type": "address"
        }
      ],
      "name": "checkOwner",
      "outputs": [
        {
          "internalType": "bool",
          "name": "",
          "type": "bool"
        }
      ],
      "stateMutability": "view",
      "type": "function"
    },
    {
      "inputs": [
        {
          "internalType": "uint256",
          "name": "nft_id",
          "type": "uint256"
        }
      ],
      "name": "checkResell",
      "outputs": [
        {
          "internalType": "bool",
          "name": "",
          "type": "bool"
        }
      ],
      "stateMutability": "view",
      "type": "function"
    },
    {
      "inputs": [
        {
          "internalType": "uint256",
          "name": "nft_id",
          "type": "uint256"
        },
        {
          "internalType": "address",
          "name": "_buyer",
          "type": "address"
        }
      ],
      "name": "checkBuyer",
      "outputs": [
        {
          "internalType": "bool",
          "name": "",
          "type": "bool"
        }
      ],
      "stateMutability": "view",
      "type": "function"
    },
    {
      "inputs": [
        {
          "internalType": "uint256",
          "name": "nft_id",
          "type": "uint256"
        },
        {
          "internalType": "address",
          "name": "_address",
          "type": "address"
        }
      ],
      "name": "checkOwnerOrBuyer",
      "outputs": [
        {
          "internalType": "bool",
          "name": "",
          "type": "bool"
        }
      ],
      "stateMutability": "view",
      "type": "function"
    },
    {
      "inputs": [
        {
          "internalType": "uint256",
          "name": "nft_id",
          "type": "uint256"
        },
        {
          "internalType": "address",
          "name": "owner",
          "type": "address"
        }
      ],
      "name": "ownerIndex",
      "outputs": [
        {
          "internalType": "uint256",
          "name": "",
          "type": "uint256"
        }
      ],
      "stateMutability": "view",
      "type": "function"
    }
  ],
  "bytecode": "0x608060405260008060006101000a81548173ffffffffffffffffffffffffffffffffffffffff021916908373ffffffffffffffffffffffffffffffffffffffff16021790555034801561005157600080fd5b5061132b806100616000396000f3fe608060405234801561001057600080fd5b50600436106100b45760003560e01c80637ca07929116100715780637ca0792914610175578063be8dbea6146101a5578063bf77f35f146101d5578063e9ae592914610205578063fb3b3fa814610235578063fec4d15d14610251576100b4565b8063035bbc71146100b957806316dd0891146100d55780631923167e146100f15780631b0131e81461010d5780633bfb8e92146101295780635fe0ac3a14610159575b600080fd5b6100d360048036038101906100ce9190610d22565b610281565b005b6100ef60048036038101906100ea9190610d85565b610353565b005b61010b60048036038101906101069190610dc5565b61044e565b005b61012760048036038101906101229190610d85565b610536565b005b610143600480360381019061013e9190610d85565b61061c565b6040516101509190610e27565b60405180910390f35b610173600480360381019061016e9190610e7a565b610677565b005b61018f600480360381019061018a9190610eba565b610737565b60405161019c9190610ef6565b60405180910390f35b6101bf60048036038101906101ba9190610d85565b610764565b6040516101cc9190610ef6565b60405180910390f35b6101ef60048036038101906101ea9190610d85565b6107d2565b6040516101fc9190610ef6565b60405180910390f35b61021f600480360381019061021a9190610eba565b6108a6565b60405161022c9190610ff5565b60405180910390f35b61024f600480360381019061024a9190611156565b61099c565b005b61026b60048036038101906102669190610d85565b610bd6565b6040516102789190610ef6565b60405180910390f35b600073ffffffffffffffffffffffffffffffffffffffff1660008054906101000a900473ffffffffffffffffffffffffffffffffffffffff1673ffffffffffffffffffffffffffffffffffffffff1614610310576040517f08c379a000000000000000000000000000000000000000000000000000000000815260040161030790611243565b60405180910390fd5b806000806101000a81548173ffffffffffffffffffffffffffffffffffffffff021916908373ffffffffffffffffffffffffffffffffffffffff16021790555050565b3373ffffffffffffffffffffffffffffffffffffffff1660008054906101000a900473ffffffffffffffffffffffffffffffffffffffff1673ffffffffffffffffffffffffffffffffffffffff16146103e1576040517f08c379a00000000000000000000000000000000000000000000000000000000081526004016103d8906112d5565b60405180910390fd5b60016003600084815260200190815260200160002060008373ffffffffffffffffffffffffffffffffffffffff1673ffffffffffffffffffffffffffffffffffffffff16815260200190815260200160002060006101000a81548160ff0219169083151502179055505050565b3373ffffffffffffffffffffffffffffffffffffffff1660008054906101000a900473ffffffffffffffffffffffffffffffffffffffff1673ffffffffffffffffffffffffffffffffffffffff16146104dc576040517f08c379a00000000000000000000000000000000000000000000000000000000081526004016104d3906112d5565b60405180910390fd5b816002600085815260200190815260200160002060008373ffffffffffffffffffffffffffffffffffffffff1673ffffffffffffffffffffffffffffffffffffffff16815260200190815260200160002081905550505050565b3373ffffffffffffffffffffffffffffffffffffffff1660008054906101000a900473ffffffffffffffffffffffffffffffffffffffff1673ffffffffffffffffffffffffffffffffffffffff16146105c4576040517f08c379a00000000000000000000000000000000000000000000000000000000081526004016105bb906112d5565b60405180910390fd5b6002600083815260200190815260200160002060008273ffffffffffffffffffffffffffffffffffffffff1673ffffffffffffffffffffffffffffffffffffffff168152602001908152602001600020600090555050565b60006002600084815260200190815260200160002060008373ffffffffffffffffffffffffffffffffffffffff1673ffffffffffffffffffffffffffffffffffffffff16815260200190815260200160002054905092915050565b3373ffffffffffffffffffffffffffffffffffffffff1660008054906101000a900473ffffffffffffffffffffffffffffffffffffffff1673ffffffffffffffffffffffffffffffffffffffff1614610705576040517f08c379a00000000000000000000000000000000000000000000000000000000081526004016106fc906112d5565b60405180910390fd5b806001600084815260200190815260200160002060070160146101000a81548160ff0219169083151502179055505050565b60006001600083815260200190815260200160002060000160009054906101000a900460ff169050919050565b6000806002600085815260200190815260200160002060008473ffffffffffffffffffffffffffffffffffffffff1673ffffffffffffffffffffffffffffffffffffffff1681526020019081526020016000205411156107c757600190506107cc565b600090505b92915050565b60006003600084815260200190815260200160002060008373ffffffffffffffffffffffffffffffffffffffff1673ffffffffffffffffffffffffffffffffffffffff16815260200190815260200160002060009054906101000a900460ff168061088d575060006002600085815260200190815260200160002060008473ffffffffffffffffffffffffffffffffffffffff1673ffffffffffffffffffffffffffffffffffffffff16815260200190815260200160002054115b1561089b57600190506108a0565b600090505b92915050565b6108ae610c4f565b60016000838152602001908152602001600020604051806101200160405290816000820160009054906101000a900460ff161515151581526020016001820154815260200160028201548152602001600382015481526020016004820154815260200160058201548152602001600682015481526020016007820160009054906101000a900473ffffffffffffffffffffffffffffffffffffffff1673ffffffffffffffffffffffffffffffffffffffff1673ffffffffffffffffffffffffffffffffffffffff1681526020016007820160149054906101000a900460ff1615151515815250509050919050565b3373ffffffffffffffffffffffffffffffffffffffff1660008054906101000a900473ffffffffffffffffffffffffffffffffffffffff1673ffffffffffffffffffffffffffffffffffffffff1614610a2a576040517f08c379a0000000000000000000000000000000000000000000000000000000008152600401610a21906112d5565b60405180910390fd5b604051806101200160405280846000015115158152602001846020015181526020018460400151815260200184606001518152602001846080015181526020018460a0015181526020018460c0015181526020018373ffffffffffffffffffffffffffffffffffffffff1681526020018215158152506001600086815260200190815260200160002060008201518160000160006101000a81548160ff0219169083151502179055506020820151816001015560408201518160020155606082015181600301556080820151816004015560a0820151816005015560c0820151816006015560e08201518160070160006101000a81548173ffffffffffffffffffffffffffffffffffffffff021916908373ffffffffffffffffffffffffffffffffffffffff1602179055506101008201518160070160146101000a81548160ff02191690831515021790555090505060016002600086815260200190815260200160002060008473ffffffffffffffffffffffffffffffffffffffff1673ffffffffffffffffffffffffffffffffffffffff1681526020019081526020016000208190555050505050565b60006003600084815260200190815260200160002060008373ffffffffffffffffffffffffffffffffffffffff1673ffffffffffffffffffffffffffffffffffffffff16815260200190815260200160002060009054906101000a900460ff1615610c445760019050610c49565b600090505b92915050565b604051806101200160405280600015158152602001600081526020016000815260200160008152602001600081526020016000815260200160008152602001600073ffffffffffffffffffffffffffffffffffffffff1681526020016000151581525090565b6000604051905090565b600080fd5b600073ffffffffffffffffffffffffffffffffffffffff82169050919050565b6000610cef82610cc4565b9050919050565b610cff81610ce4565b8114610d0a57600080fd5b50565b600081359050610d1c81610cf6565b92915050565b600060208284031215610d3857610d37610cbf565b5b6000610d4684828501610d0d565b91505092915050565b6000819050919050565b610d6281610d4f565b8114610d6d57600080fd5b50565b600081359050610d7f81610d59565b92915050565b60008060408385031215610d9c57610d9b610cbf565b5b6000610daa85828601610d70565b9250506020610dbb85828601610d0d565b9150509250929050565b600080600060608486031215610dde57610ddd610cbf565b5b6000610dec86828701610d70565b9350506020610dfd86828701610d70565b9250506040610e0e86828701610d0d565b9150509250925092565b610e2181610d4f565b82525050565b6000602082019050610e3c6000830184610e18565b92915050565b60008115159050919050565b610e5781610e42565b8114610e6257600080fd5b50565b600081359050610e7481610e4e565b92915050565b60008060408385031215610e9157610e90610cbf565b5b6000610e9f85828601610d70565b9250506020610eb085828601610e65565b9150509250929050565b600060208284031215610ed057610ecf610cbf565b5b6000610ede84828501610d70565b91505092915050565b610ef081610e42565b82525050565b6000602082019050610f0b6000830184610ee7565b92915050565b610f1a81610e42565b82525050565b610f2981610d4f565b82525050565b610f3881610ce4565b82525050565b61012082016000820151610f556000850182610f11565b506020820151610f686020850182610f20565b506040820151610f7b6040850182610f20565b506060820151610f8e6060850182610f20565b506080820151610fa16080850182610f20565b5060a0820151610fb460a0850182610f20565b5060c0820151610fc760c0850182610f20565b5060e0820151610fda60e0850182610f2f565b50610100820151610fef610100850182610f11565b50505050565b60006101208201905061100b6000830184610f3e565b92915050565b600080fd5b6000601f19601f8301169050919050565b7f4e487b7100000000000000000000000000000000000000000000000000000000600052604160045260246000fd5b61105f82611016565b810181811067ffffffffffffffff8211171561107e5761107d611027565b5b80604052505050565b6000611091610cb5565b905061109d8282611056565b919050565b600060e082840312156110b8576110b7611011565b5b6110c260e0611087565b905060006110d284828501610e65565b60008301525060206110e684828501610d70565b60208301525060406110fa84828501610d70565b604083015250606061110e84828501610d70565b606083015250608061112284828501610d70565b60808301525060a061113684828501610d70565b60a08301525060c061114a84828501610d70565b60c08301525092915050565b600080600080610140858703121561117157611170610cbf565b5b600061117f87828801610d70565b9450506020611190878288016110a2565b9350506101006111a287828801610d0d565b9250506101206111b487828801610e65565b91505092959194509250565b600082825260208201905092915050565b7f4c6567656e6461727920436f6e74726163743a20446f6e277420617474656d7060008201527f20746f206368616e6765206d61726b6574706c61636520616464726573732100602082015250565b600061122d603f836111c0565b9150611238826111d1565b604082019050919050565b6000602082019050818103600083015261125c81611220565b9050919050565b7f697343616c6c65644d61726b6574706c6163653a20796f752063616e2774206360008201527f616c6c20746869732066756e6374696f6e000000000000000000000000000000602082015250565b60006112bf6031836111c0565b91506112ca82611263565b604082019050919050565b600060208201905081810360008301526112ee816112b2565b905091905056fea26469706673582212200c8a9dad17bcda609d8ca7918eec729cf2ff45c7886d4ca0bbae8454e2f2aa5864736f6c634300080b0033",
  "immutableReferences": {},
  "source": "// SPDX-License-Identifier: MIT\r\npragma solidity >=0.4.22 <0.9.0;\r\n\r\ncontract Legendary {\r\n\r\n    struct legendary {\r\n        bool resell ;\r\n        uint256 product_price ;\r\n        uint256 product_unit ;\r\n        uint256 ticket_price ;\r\n        uint256 ticket_unit;\r\n        uint256 ticket_available ;\r\n        uint256 royalty ;\r\n        address creator ;\r\n        bool sold ;\r\n    }\r\n\r\n    struct legen_param  {\r\n        bool resell;\r\n        uint256 product_price ;\r\n        uint256 product_unit ;\r\n        uint256 ticket_price ;\r\n        uint256 ticket_unit ;\r\n        uint256 ticket_available  ;\r\n        uint256 royalty ;\r\n    }\r\n\r\n    address private _solsMarketplace = address(0);\r\n\r\n    mapping(uint256 => legendary) private lists ;\r\n    mapping(uint256 => mapping(address => uint256)) owners;\r\n    mapping(uint256 => mapping(address => bool)) buyers ;\r\n\r\n    constructor () {}\r\n    \r\n    function setSolsMarketplaceToLegen(address solsMarketplace) external {\r\n        require(_solsMarketplace ==  address(0), \"Legendary Contract: Don't attemp to change marketplace address!\") ;\r\n\r\n        _solsMarketplace = address(solsMarketplace) ;\r\n    }\r\n\r\n    function insertLegen(\r\n        uint256 new_nft_id, \r\n        legen_param memory _legen_param,\r\n        address creator, \r\n        bool sold\r\n    ) external isCalledMarketplace {\r\n        lists[new_nft_id] = legendary (\r\n            _legen_param.resell,\r\n            _legen_param.product_price ,\r\n            _legen_param.product_unit,\r\n            _legen_param.ticket_price ,\r\n            _legen_param.ticket_unit,\r\n            _legen_param.ticket_available ,\r\n            _legen_param.royalty ,\r\n            creator,\r\n            sold\r\n        );\r\n        owners[new_nft_id][creator] = 1 ;\r\n    }\r\n\r\n    function updateSold(uint256 nft_id, bool sold) external isCalledMarketplace {\r\n        lists[nft_id].sold = sold ;\r\n    }\r\n    function updateOwner(uint256 nft_id, uint256 index, address _owner) external isCalledMarketplace {\r\n        owners[nft_id][_owner] = index ;\r\n    }\r\n    function updateBuyer(uint256 nft_id, address _buyer) external isCalledMarketplace {\r\n        buyers[nft_id][_buyer] = true ;\r\n    }\r\n    function deleteOwner(uint256 nft_id, address owner) external isCalledMarketplace {\r\n        delete(owners[nft_id][owner]) ;\r\n    }\r\n\r\n    function fetchLegen(uint256 nft_id) external view returns(legendary memory) {\r\n        return lists[nft_id] ;\r\n    }\r\n    function checkOwner(uint256 nft_id , address _owner) external view returns(bool) {\r\n        if(owners[nft_id][_owner] > 0) return true ;\r\n        return false ;\r\n    }\r\n    function checkResell(uint256 nft_id) external view returns(bool) {\r\n        return lists[nft_id].resell ;\r\n    }\r\n    function checkBuyer(uint256 nft_id, address _buyer) external view returns(bool) {\r\n        if(buyers[nft_id][_buyer]) return true ;\r\n        return false ;\r\n    }\r\n    function checkOwnerOrBuyer(uint256 nft_id, address _address) external view returns(bool) {\r\n        if(buyers[nft_id][_address] || owners[nft_id][_address] > 0) return true ;\r\n        return false ;\r\n    }\r\n    function ownerIndex(uint256 nft_id, address owner) external view returns(uint256) {\r\n        return owners[nft_id][owner] ;\r\n    }\r\n\r\n    modifier isCalledMarketplace() {\r\n        require(_solsMarketplace == msg.sender, \"isCalledMarketplace: you can't call this function\") ;\r\n        _;\r\n    }\r\n}",
  "sourcePath": "E:\\Truffle-Ganache-NFT-Martkeplace\\nft-truffle-contract\\contracts\\Legendary.sol",
  "compiler": {
    "name": "solc",
    "version": "0.8.11+commit.d7f03943.Emscripten.clang"
  },
  "schemaVersion": "3.4.4",
  "updatedAt": "2022-06-24T09:02:13.895Z",
  "devdoc": {
    "kind": "dev",
    "methods": {},
    "version": 1
  },
  "userdoc": {
    "kind": "user",
    "methods": {},
    "version": 1
  }
}