{
  "contractName": "SOLSMarketplace",
  "abi": [
    {
      "inputs": [
        {
          "internalType": "address",
          "name": "_SOLN",
          "type": "address"
        }
      ],
      "stateMutability": "nonpayable",
      "type": "constructor"
    },
    {
      "anonymous": false,
      "inputs": [
        {
          "indexed": false,
          "internalType": "uint256",
          "name": "",
          "type": "uint256"
        }
      ],
      "name": "NFTListed",
      "type": "event"
    },
    {
      "anonymous": false,
      "inputs": [
        {
          "indexed": true,
          "internalType": "address",
          "name": "previousOwner",
          "type": "address"
        },
        {
          "indexed": true,
          "internalType": "address",
          "name": "newOwner",
          "type": "address"
        }
      ],
      "name": "OwnershipTransferred",
      "type": "event"
    },
    {
      "inputs": [],
      "name": "owner",
      "outputs": [
        {
          "internalType": "address",
          "name": "",
          "type": "address"
        }
      ],
      "stateMutability": "view",
      "type": "function",
      "constant": true
    },
    {
      "inputs": [],
      "name": "renounceOwnership",
      "outputs": [],
      "stateMutability": "nonpayable",
      "type": "function"
    },
    {
      "inputs": [
        {
          "internalType": "address",
          "name": "newOwner",
          "type": "address"
        }
      ],
      "name": "transferOwnership",
      "outputs": [],
      "stateMutability": "nonpayable",
      "type": "function"
    },
    {
      "inputs": [
        {
          "components": [
            {
              "internalType": "address",
              "name": "creator_used_wallet",
              "type": "address"
            },
            {
              "internalType": "string",
              "name": "creator_uuid_hash",
              "type": "string"
            },
            {
              "internalType": "uint256",
              "name": "nft_type",
              "type": "uint256"
            },
            {
              "internalType": "uint256",
              "name": "nft_price",
              "type": "uint256"
            },
            {
              "internalType": "uint256",
              "name": "resell_price",
              "type": "uint256"
            },
            {
              "internalType": "uint256",
              "name": "minted_amount",
              "type": "uint256"
            },
            {
              "internalType": "uint256",
              "name": "royalty",
              "type": "uint256"
            },
            {
              "internalType": "bool",
              "name": "resell",
              "type": "bool"
            },
            {
              "internalType": "string",
              "name": "uri",
              "type": "string"
            }
          ],
          "internalType": "struct SOLSMarketplace.nft_param",
          "name": "_params",
          "type": "tuple"
        }
      ],
      "name": "mintNFT",
      "outputs": [],
      "stateMutability": "nonpayable",
      "type": "function"
    },
    {
      "inputs": [
        {
          "internalType": "address",
          "name": "_to",
          "type": "address"
        },
        {
          "internalType": "string",
          "name": "uuid_hash",
          "type": "string"
        },
        {
          "internalType": "uint256",
          "name": "nft_id",
          "type": "uint256"
        },
        {
          "internalType": "uint256",
          "name": "amount",
          "type": "uint256"
        }
      ],
      "name": "sellNFT",
      "outputs": [],
      "stateMutability": "nonpayable",
      "type": "function"
    },
    {
      "inputs": [],
      "name": "fetchAllNFTs",
      "outputs": [
        {
          "components": [
            {
              "internalType": "address",
              "name": "creator_used_wallet",
              "type": "address"
            },
            {
              "internalType": "string",
              "name": "creator_uuid_hash",
              "type": "string"
            },
            {
              "internalType": "uint256",
              "name": "nft_id",
              "type": "uint256"
            },
            {
              "internalType": "uint256",
              "name": "nft_type",
              "type": "uint256"
            },
            {
              "internalType": "uint256",
              "name": "nft_price",
              "type": "uint256"
            },
            {
              "internalType": "uint256",
              "name": "resell_price",
              "type": "uint256"
            },
            {
              "internalType": "uint256",
              "name": "minted_amount",
              "type": "uint256"
            },
            {
              "internalType": "uint256",
              "name": "royalty",
              "type": "uint256"
            },
            {
              "internalType": "bool",
              "name": "resell",
              "type": "bool"
            },
            {
              "internalType": "string",
              "name": "uri",
              "type": "string"
            }
          ],
          "internalType": "struct SOLSMarketplace.nft[]",
          "name": "",
          "type": "tuple[]"
        }
      ],
      "stateMutability": "view",
      "type": "function",
      "constant": true
    },
    {
      "inputs": [
        {
          "internalType": "uint256",
          "name": "nft_id",
          "type": "uint256"
        }
      ],
      "name": "fetchOwners",
      "outputs": [
        {
          "components": [
            {
              "internalType": "address",
              "name": "used_wallet",
              "type": "address"
            },
            {
              "internalType": "string",
              "name": "uuid_hash",
              "type": "string"
            }
          ],
          "internalType": "struct SOLSMarketplace.nft_owner[]",
          "name": "",
          "type": "tuple[]"
        }
      ],
      "stateMutability": "view",
      "type": "function",
      "constant": true
    },
    {
      "inputs": [
        {
          "internalType": "uint256",
          "name": "nft_id",
          "type": "uint256"
        }
      ],
      "name": "fetchNFTById",
      "outputs": [
        {
          "components": [
            {
              "internalType": "address",
              "name": "creator_used_wallet",
              "type": "address"
            },
            {
              "internalType": "string",
              "name": "creator_uuid_hash",
              "type": "string"
            },
            {
              "internalType": "uint256",
              "name": "nft_id",
              "type": "uint256"
            },
            {
              "internalType": "uint256",
              "name": "nft_type",
              "type": "uint256"
            },
            {
              "internalType": "uint256",
              "name": "nft_price",
              "type": "uint256"
            },
            {
              "internalType": "uint256",
              "name": "resell_price",
              "type": "uint256"
            },
            {
              "internalType": "uint256",
              "name": "minted_amount",
              "type": "uint256"
            },
            {
              "internalType": "uint256",
              "name": "royalty",
              "type": "uint256"
            },
            {
              "internalType": "bool",
              "name": "resell",
              "type": "bool"
            },
            {
              "internalType": "string",
              "name": "uri",
              "type": "string"
            }
          ],
          "internalType": "struct SOLSMarketplace.nft",
          "name": "",
          "type": "tuple"
        }
      ],
      "stateMutability": "view",
      "type": "function",
      "constant": true
    },
    {
      "inputs": [],
      "name": "fetchSupplyAmount",
      "outputs": [
        {
          "internalType": "uint256",
          "name": "",
          "type": "uint256"
        }
      ],
      "stateMutability": "view",
      "type": "function",
      "constant": true
    }
  ],
  "bytecode": "0x60806040523480156200001157600080fd5b50604051620024b5380380620024b58339818101604052810190620000379190620002a7565b620000576200004b6200017160201b60201c565b6200017960201b60201c565b80600260006101000a81548173ffffffffffffffffffffffffffffffffffffffff021916908373ffffffffffffffffffffffffffffffffffffffff16021790555033600360006101000a81548173ffffffffffffffffffffffffffffffffffffffff021916908373ffffffffffffffffffffffffffffffffffffffff160217905550600260009054906101000a900473ffffffffffffffffffffffffffffffffffffffff1673ffffffffffffffffffffffffffffffffffffffff16634901b35b306040518263ffffffff1660e01b8152600401620001369190620002ea565b600060405180830381600087803b1580156200015157600080fd5b505af115801562000166573d6000803e3d6000fd5b505050505062000307565b600033905090565b60008060009054906101000a900473ffffffffffffffffffffffffffffffffffffffff169050816000806101000a81548173ffffffffffffffffffffffffffffffffffffffff021916908373ffffffffffffffffffffffffffffffffffffffff1602179055508173ffffffffffffffffffffffffffffffffffffffff168173ffffffffffffffffffffffffffffffffffffffff167f8be0079c531659141344cd1fd0a4f28419497f9722a3daafe3b4186f6b6457e060405160405180910390a35050565b600080fd5b600073ffffffffffffffffffffffffffffffffffffffff82169050919050565b60006200026f8262000242565b9050919050565b620002818162000262565b81146200028d57600080fd5b50565b600081519050620002a18162000276565b92915050565b600060208284031215620002c057620002bf6200023d565b5b6000620002d08482850162000290565b91505092915050565b620002e48162000262565b82525050565b6000602082019050620003016000830184620002d9565b92915050565b61219e80620003176000396000f3fe608060405234801561001057600080fd5b50600436106100935760003560e01c80638da5cb5b116100665780638da5cb5b146100f8578063ab01cc5f14610116578063cd5b0edd14610134578063f0e1510314610164578063f2fde38b1461019457610093565b8063207f09791461009857806322f298a1146100b45780633f0e317b146100d0578063715018a6146100ee575b600080fd5b6100b260048036038101906100ad9190611554565b6101b0565b005b6100ce60048036038101906100c99190611731565b610605565b005b6100d8610a19565b6040516100e591906119d2565b60405180910390f35b6100f6610c4a565b005b610100610cd2565b60405161010d9190611a03565b60405180910390f35b61011e610cfb565b60405161012b9190611a2d565b60405180910390f35b61014e60048036038101906101499190611a48565b610d08565b60405161015b9190611b56565b60405180910390f35b61017e60048036038101906101799190611a48565b610f16565b60405161018b9190611c77565b60405180910390f35b6101ae60048036038101906101a99190611c99565b611070565b005b816101bb6001611168565b81106101fc576040517f08c379a00000000000000000000000000000000000000000000000000000000081526004016101f390611d23565b60405180910390fd5b610204611176565b73ffffffffffffffffffffffffffffffffffffffff16610222610cd2565b73ffffffffffffffffffffffffffffffffffffffff1614610278576040517f08c379a000000000000000000000000000000000000000000000000000000000815260040161026f90611d8f565b60405180910390fd5b6001600260009054906101000a900473ffffffffffffffffffffffffffffffffffffffff1673ffffffffffffffffffffffffffffffffffffffff1662fdd58e600486815481106102cb576102ca611daf565b5b90600052602060002090600a020160000160009054906101000a900473ffffffffffffffffffffffffffffffffffffffff16866040518363ffffffff1660e01b815260040161031b929190611dde565b602060405180830381865afa158015610338573d6000803e3d6000fd5b505050506040513d601f19601f8201168201806040525081019061035c9190611e1c565b1161036657600080fd5b81600260009054906101000a900473ffffffffffffffffffffffffffffffffffffffff1673ffffffffffffffffffffffffffffffffffffffff1662fdd58e600486815481106103b8576103b7611daf565b5b90600052602060002090600a020160000160009054906101000a900473ffffffffffffffffffffffffffffffffffffffff16866040518363ffffffff1660e01b8152600401610408929190611dde565b602060405180830381865afa158015610425573d6000803e3d6000fd5b505050506040513d601f19601f820116820180604052508101906104499190611e1c565b1161045357600080fd5b600260009054906101000a900473ffffffffffffffffffffffffffffffffffffffff1673ffffffffffffffffffffffffffffffffffffffff166336cd52a684600486815481106104a6576104a5611daf565b5b90600052602060002090600a020160000160009054906101000a900473ffffffffffffffffffffffffffffffffffffffff1688866040518563ffffffff1660e01b81526004016104f99493929190611e49565b600060405180830381600087803b15801561051357600080fd5b505af1158015610527573d6000803e3d6000fd5b50505050600060405180604001604052808773ffffffffffffffffffffffffffffffffffffffff1681526020018681525090506005600085815260200190815260200160002081908060018154018082558091505060019003906000526020600020906002020160009091909190915060008201518160000160006101000a81548173ffffffffffffffffffffffffffffffffffffffff021916908373ffffffffffffffffffffffffffffffffffffffff16021790555060208201518160010190805190602001906105fa929190611258565b505050505050505050565b61060d611176565b73ffffffffffffffffffffffffffffffffffffffff1661062b610cd2565b73ffffffffffffffffffffffffffffffffffffffff1614610681576040517f08c379a000000000000000000000000000000000000000000000000000000000815260040161067890611d8f565b60405180910390fd5b600073ffffffffffffffffffffffffffffffffffffffff16816000015173ffffffffffffffffffffffffffffffffffffffff1614156106f5576040517f08c379a00000000000000000000000000000000000000000000000000000000081526004016106ec90611eda565b60405180910390fd5b600081606001511161073c576040517f08c379a000000000000000000000000000000000000000000000000000000000815260040161073390611f46565b60405180910390fd5b60008160a0015111610783576040517f08c379a000000000000000000000000000000000000000000000000000000000815260040161077a90611fb2565b60405180910390fd5b8060e00151156107d55760008160800151116107d4576040517f08c379a00000000000000000000000000000000000000000000000000000000081526004016107cb9061201e565b60405180910390fd5b5b60006107e16001611168565b90506107ed600161117e565b6004604051806101400160405280846000015173ffffffffffffffffffffffffffffffffffffffff168152602001846020015181526020018381526020018460400151815260200184606001518152602001846080015181526020018460a0015181526020018460c0015181526020018460e001511515815260200184610100015181525090806001815401808255809150506001900390600052602060002090600a020160009091909190915060008201518160000160006101000a81548173ffffffffffffffffffffffffffffffffffffffff021916908373ffffffffffffffffffffffffffffffffffffffff16021790555060208201518160010190805190602001906108fe929190611258565b5060408201518160020155606082015181600301556080820151816004015560a0820151816005015560c0820151816006015560e082015181600701556101008201518160080160006101000a81548160ff021916908315150217905550610120820151816009019080519060200190610979929190611258565b505050600260009054906101000a900473ffffffffffffffffffffffffffffffffffffffff1673ffffffffffffffffffffffffffffffffffffffff1663156e29f68360000151838560a001516040518463ffffffff1660e01b81526004016109e39392919061203e565b600060405180830381600087803b1580156109fd57600080fd5b505af1158015610a11573d6000803e3d6000fd5b505050505050565b60606004805480602002602001604051908101604052809291908181526020016000905b82821015610c4157838290600052602060002090600a0201604051806101400160405290816000820160009054906101000a900473ffffffffffffffffffffffffffffffffffffffff1673ffffffffffffffffffffffffffffffffffffffff1673ffffffffffffffffffffffffffffffffffffffff168152602001600182018054610ac7906120a4565b80601f0160208091040260200160405190810160405280929190818152602001828054610af3906120a4565b8015610b405780601f10610b1557610100808354040283529160200191610b40565b820191906000526020600020905b815481529060010190602001808311610b2357829003601f168201915b505050505081526020016002820154815260200160038201548152602001600482015481526020016005820154815260200160068201548152602001600782015481526020016008820160009054906101000a900460ff16151515158152602001600982018054610bb0906120a4565b80601f0160208091040260200160405190810160405280929190818152602001828054610bdc906120a4565b8015610c295780601f10610bfe57610100808354040283529160200191610c29565b820191906000526020600020905b815481529060010190602001808311610c0c57829003601f168201915b50505050508152505081526020019060010190610a3d565b50505050905090565b610c52611176565b73ffffffffffffffffffffffffffffffffffffffff16610c70610cd2565b73ffffffffffffffffffffffffffffffffffffffff1614610cc6576040517f08c379a0000000000000000000000000000000000000000000000000000000008152600401610cbd90611d8f565b60405180910390fd5b610cd06000611194565b565b60008060009054906101000a900473ffffffffffffffffffffffffffffffffffffffff16905090565b6000600480549050905090565b610d106112de565b60048281548110610d2457610d23611daf565b5b90600052602060002090600a0201604051806101400160405290816000820160009054906101000a900473ffffffffffffffffffffffffffffffffffffffff1673ffffffffffffffffffffffffffffffffffffffff1673ffffffffffffffffffffffffffffffffffffffff168152602001600182018054610da4906120a4565b80601f0160208091040260200160405190810160405280929190818152602001828054610dd0906120a4565b8015610e1d5780601f10610df257610100808354040283529160200191610e1d565b820191906000526020600020905b815481529060010190602001808311610e0057829003601f168201915b505050505081526020016002820154815260200160038201548152602001600482015481526020016005820154815260200160068201548152602001600782015481526020016008820160009054906101000a900460ff16151515158152602001600982018054610e8d906120a4565b80601f0160208091040260200160405190810160405280929190818152602001828054610eb9906120a4565b8015610f065780601f10610edb57610100808354040283529160200191610f06565b820191906000526020600020905b815481529060010190602001808311610ee957829003601f168201915b5050505050815250509050919050565b606060056000838152602001908152602001600020805480602002602001604051908101604052809291908181526020016000905b8282101561106557838290600052602060002090600202016040518060400160405290816000820160009054906101000a900473ffffffffffffffffffffffffffffffffffffffff1673ffffffffffffffffffffffffffffffffffffffff1673ffffffffffffffffffffffffffffffffffffffff168152602001600182018054610fd4906120a4565b80601f0160208091040260200160405190810160405280929190818152602001828054611000906120a4565b801561104d5780601f106110225761010080835404028352916020019161104d565b820191906000526020600020905b81548152906001019060200180831161103057829003601f168201915b50505050508152505081526020019060010190610f4b565b505050509050919050565b611078611176565b73ffffffffffffffffffffffffffffffffffffffff16611096610cd2565b73ffffffffffffffffffffffffffffffffffffffff16146110ec576040517f08c379a00000000000000000000000000000000000000000000000000000000081526004016110e390611d8f565b60405180910390fd5b600073ffffffffffffffffffffffffffffffffffffffff168173ffffffffffffffffffffffffffffffffffffffff16141561115c576040517f08c379a000000000000000000000000000000000000000000000000000000000815260040161115390612148565b60405180910390fd5b61116581611194565b50565b600081600001549050919050565b600033905090565b6001816000016000828254019250508190555050565b60008060009054906101000a900473ffffffffffffffffffffffffffffffffffffffff169050816000806101000a81548173ffffffffffffffffffffffffffffffffffffffff021916908373ffffffffffffffffffffffffffffffffffffffff1602179055508173ffffffffffffffffffffffffffffffffffffffff168173ffffffffffffffffffffffffffffffffffffffff167f8be0079c531659141344cd1fd0a4f28419497f9722a3daafe3b4186f6b6457e060405160405180910390a35050565b828054611264906120a4565b90600052602060002090601f01602090048101928261128657600085556112cd565b82601f1061129f57805160ff19168380011785556112cd565b828001600101855582156112cd579182015b828111156112cc5782518255916020019190600101906112b1565b5b5090506112da9190611349565b5090565b604051806101400160405280600073ffffffffffffffffffffffffffffffffffffffff16815260200160608152602001600081526020016000815260200160008152602001600081526020016000815260200160008152602001600015158152602001606081525090565b5b8082111561136257600081600090555060010161134a565b5090565b6000604051905090565b600080fd5b600080fd5b600073ffffffffffffffffffffffffffffffffffffffff82169050919050565b60006113a58261137a565b9050919050565b6113b58161139a565b81146113c057600080fd5b50565b6000813590506113d2816113ac565b92915050565b600080fd5b600080fd5b6000601f19601f8301169050919050565b7f4e487b7100000000000000000000000000000000000000000000000000000000600052604160045260246000fd5b61142b826113e2565b810181811067ffffffffffffffff8211171561144a576114496113f3565b5b80604052505050565b600061145d611366565b90506114698282611422565b919050565b600067ffffffffffffffff821115611489576114886113f3565b5b611492826113e2565b9050602081019050919050565b82818337600083830152505050565b60006114c16114bc8461146e565b611453565b9050828152602081018484840111156114dd576114dc6113dd565b5b6114e884828561149f565b509392505050565b600082601f830112611505576115046113d8565b5b81356115158482602086016114ae565b91505092915050565b6000819050919050565b6115318161151e565b811461153c57600080fd5b50565b60008135905061154e81611528565b92915050565b6000806000806080858703121561156e5761156d611370565b5b600061157c878288016113c3565b945050602085013567ffffffffffffffff81111561159d5761159c611375565b5b6115a9878288016114f0565b93505060406115ba8782880161153f565b92505060606115cb8782880161153f565b91505092959194509250565b600080fd5b600080fd5b60008115159050919050565b6115f6816115e1565b811461160157600080fd5b50565b600081359050611613816115ed565b92915050565b600061012082840312156116305761162f6115d7565b5b61163b610120611453565b9050600061164b848285016113c3565b600083015250602082013567ffffffffffffffff81111561166f5761166e6115dc565b5b61167b848285016114f0565b602083015250604061168f8482850161153f565b60408301525060606116a38482850161153f565b60608301525060806116b78482850161153f565b60808301525060a06116cb8482850161153f565b60a08301525060c06116df8482850161153f565b60c08301525060e06116f384828501611604565b60e08301525061010082013567ffffffffffffffff811115611718576117176115dc565b5b611724848285016114f0565b6101008301525092915050565b60006020828403121561174757611746611370565b5b600082013567ffffffffffffffff81111561176557611764611375565b5b61177184828501611619565b91505092915050565b600081519050919050565b600082825260208201905092915050565b6000819050602082019050919050565b6117af8161139a565b82525050565b600081519050919050565b600082825260208201905092915050565b60005b838110156117ef5780820151818401526020810190506117d4565b838111156117fe576000848401525b50505050565b600061180f826117b5565b61181981856117c0565b93506118298185602086016117d1565b611832816113e2565b840191505092915050565b6118468161151e565b82525050565b611855816115e1565b82525050565b60006101408301600083015161187460008601826117a6565b506020830151848203602086015261188c8282611804565b91505060408301516118a1604086018261183d565b5060608301516118b4606086018261183d565b5060808301516118c7608086018261183d565b5060a08301516118da60a086018261183d565b5060c08301516118ed60c086018261183d565b5060e083015161190060e086018261183d565b5061010083015161191561010086018261184c565b5061012083015184820361012086015261192f8282611804565b9150508091505092915050565b6000611948838361185b565b905092915050565b6000602082019050919050565b60006119688261177a565b6119728185611785565b93508360208202850161198485611796565b8060005b858110156119c057848403895281516119a1858261193c565b94506119ac83611950565b925060208a01995050600181019050611988565b50829750879550505050505092915050565b600060208201905081810360008301526119ec818461195d565b905092915050565b6119fd8161139a565b82525050565b6000602082019050611a1860008301846119f4565b92915050565b611a278161151e565b82525050565b6000602082019050611a426000830184611a1e565b92915050565b600060208284031215611a5e57611a5d611370565b5b6000611a6c8482850161153f565b91505092915050565b600061014083016000830151611a8e60008601826117a6565b5060208301518482036020860152611aa68282611804565b9150506040830151611abb604086018261183d565b506060830151611ace606086018261183d565b506080830151611ae1608086018261183d565b5060a0830151611af460a086018261183d565b5060c0830151611b0760c086018261183d565b5060e0830151611b1a60e086018261183d565b50610100830151611b2f61010086018261184c565b50610120830151848203610120860152611b498282611804565b9150508091505092915050565b60006020820190508181036000830152611b708184611a75565b905092915050565b600081519050919050565b600082825260208201905092915050565b6000819050602082019050919050565b6000604083016000830151611bbc60008601826117a6565b5060208301518482036020860152611bd48282611804565b9150508091505092915050565b6000611bed8383611ba4565b905092915050565b6000602082019050919050565b6000611c0d82611b78565b611c178185611b83565b935083602082028501611c2985611b94565b8060005b85811015611c655784840389528151611c468582611be1565b9450611c5183611bf5565b925060208a01995050600181019050611c2d565b50829750879550505050505092915050565b60006020820190508181036000830152611c918184611c02565b905092915050565b600060208284031215611caf57611cae611370565b5b6000611cbd848285016113c3565b91505092915050565b600082825260208201905092915050565b7f4e667420696420697320696e76616c6964000000000000000000000000000000600082015250565b6000611d0d601183611cc6565b9150611d1882611cd7565b602082019050919050565b60006020820190508181036000830152611d3c81611d00565b9050919050565b7f4f776e61626c653a2063616c6c6572206973206e6f7420746865206f776e6572600082015250565b6000611d79602083611cc6565b9150611d8482611d43565b602082019050919050565b60006020820190508181036000830152611da881611d6c565b9050919050565b7f4e487b7100000000000000000000000000000000000000000000000000000000600052603260045260246000fd5b6000604082019050611df360008301856119f4565b611e006020830184611a1e565b9392505050565b600081519050611e1681611528565b92915050565b600060208284031215611e3257611e31611370565b5b6000611e4084828501611e07565b91505092915050565b6000608082019050611e5e6000830187611a1e565b611e6b60208301866119f4565b611e7860408301856119f4565b611e856060830184611a1e565b95945050505050565b7f63726561746f722077616c6c6574206572726f72000000000000000000000000600082015250565b6000611ec4601483611cc6565b9150611ecf82611e8e565b602082019050919050565b60006020820190508181036000830152611ef381611eb7565b9050919050565b7f6e6674207072696365206572726f720000000000000000000000000000000000600082015250565b6000611f30600f83611cc6565b9150611f3b82611efa565b602082019050919050565b60006020820190508181036000830152611f5f81611f23565b9050919050565b7f6d696e74656420616d6f756e74206572726f7200000000000000000000000000600082015250565b6000611f9c601383611cc6565b9150611fa782611f66565b602082019050919050565b60006020820190508181036000830152611fcb81611f8f565b9050919050565b7f726573656c6c207072696365206572726f720000000000000000000000000000600082015250565b6000612008601283611cc6565b915061201382611fd2565b602082019050919050565b6000602082019050818103600083015261203781611ffb565b9050919050565b600060608201905061205360008301866119f4565b6120606020830185611a1e565b61206d6040830184611a1e565b949350505050565b7f4e487b7100000000000000000000000000000000000000000000000000000000600052602260045260246000fd5b600060028204905060018216806120bc57607f821691505b602082108114156120d0576120cf612075565b5b50919050565b7f4f776e61626c653a206e6577206f776e657220697320746865207a65726f206160008201527f6464726573730000000000000000000000000000000000000000000000000000602082015250565b6000612132602683611cc6565b915061213d826120d6565b604082019050919050565b6000602082019050818103600083015261216181612125565b905091905056fea264697066735822122057ccca805e94d77fb54f989641215031bbec0bde11549a1052ebf18587a6b77364736f6c634300080b0033",
  "immutableReferences": {},
  "source": "// SPDX-License-Identifier: MIT\r\npragma solidity >=0.4.22 <0.9.0;\r\n\r\nimport \"@openzeppelin/contracts/utils/Counters.sol\";\r\nimport \"@openzeppelin/contracts/token/ERC20/IERC20.sol\";\r\nimport \"@openzeppelin/contracts/access/Ownable.sol\";\r\n\r\nimport \"./SOLSNFT.sol\" ;\r\n\r\ncontract SOLSMarketplace is Ownable {\r\n    using Counters for Counters.Counter ;\r\n    Counters.Counter nft_counter ;\r\n\r\n    SOLSNFT private SOLN ;\r\n\r\n    address marketplace_owner ;\r\n   \r\n    struct nft {\r\n        address creator_used_wallet ;\r\n        string creator_uuid_hash ;\r\n        uint256 nft_id ;\r\n        uint256 nft_type ;\r\n        uint256 nft_price ;\r\n        uint256 resell_price ;\r\n        uint256 minted_amount ;\r\n        uint256 royalty ;\r\n        bool resell ;\r\n        string uri ;\r\n    }\r\n\r\n    struct nft_param {\r\n        address creator_used_wallet ;\r\n        string creator_uuid_hash ;\r\n        uint256 nft_type ;\r\n        uint256 nft_price ;\r\n        uint256 resell_price ;\r\n        uint256 minted_amount ;\r\n        uint256 royalty ;\r\n        bool resell ;\r\n        string uri ;\r\n    }\r\n\r\n    struct nft_owner {\r\n        address used_wallet ;\r\n        string  uuid_hash ;\r\n    }    \r\n\r\n    nft[] private nfts ;\r\n\r\n    mapping(uint256 => nft_owner[] ) private owners ;\r\n\r\n    event NFTListed(uint256) ;\r\n\r\n    constructor ( address _SOLN ) {\r\n        SOLN = SOLSNFT(_SOLN) ;\r\n\r\n        marketplace_owner = msg.sender ;\r\n\r\n        SOLN.setSolsMarketplaceToNFT(address(this));\r\n    }\r\n\r\n    function mintNFT( nft_param memory _params ) external onlyOwner {\r\n        require(_params.creator_used_wallet != address(0), \"creator wallet error\") ;\r\n        require(_params.nft_price > 0, \"nft price error\") ;\r\n        require(_params.minted_amount > 0, \"minted amount error\") ;\r\n\r\n        if(_params.resell) require(_params.resell_price > 0, \"resell price error\") ;\r\n\r\n        uint256 new_nft_id = nft_counter.current();\r\n\r\n        nft_counter.increment() ;\r\n\r\n        nfts.push(\r\n            nft(\r\n                _params.creator_used_wallet,\r\n                _params.creator_uuid_hash,\r\n                new_nft_id,\r\n                _params.nft_type,\r\n                _params.nft_price,\r\n                _params.resell_price,\r\n                _params.minted_amount,\r\n                _params.royalty,\r\n                _params.resell,\r\n                _params.uri\r\n            )\r\n        ) ;\r\n\r\n        SOLN.mint(_params.creator_used_wallet, new_nft_id , _params.minted_amount);\r\n    }\r\n\r\n    function sellNFT( address _to, string memory uuid_hash, uint256 nft_id, uint256 amount ) external isValidNftId(nft_id) onlyOwner {\r\n        require(SOLN.balanceOf(nfts[nft_id].creator_used_wallet, nft_id) > 1) ;\r\n        require(SOLN.balanceOf(nfts[nft_id].creator_used_wallet, nft_id) > amount ) ;\r\n\r\n        SOLN.transfer(nft_id, nfts[nft_id].creator_used_wallet, _to, amount ) ;\r\n\r\n        nft_owner memory new_owner = nft_owner(\r\n            _to,\r\n            uuid_hash\r\n        );\r\n\r\n        owners[nft_id].push(new_owner) ;\r\n    }\r\n\r\n    function fetchAllNFTs() external view returns(nft[] memory) {\r\n        return nfts ;\r\n    }\r\n\r\n    function fetchOwners(uint256 nft_id) external view returns(nft_owner[] memory) {\r\n        return owners[nft_id] ;\r\n    } \r\n    \r\n    function fetchNFTById(uint256 nft_id) external view returns(nft memory) {\r\n        return nfts[nft_id] ;\r\n    }\r\n\r\n    function fetchSupplyAmount() external view returns(uint256) {\r\n        return nfts.length ;\r\n    }\r\n\r\n    modifier isValidNftId(uint256 nft_id) {\r\n        require(nft_id < nft_counter.current(), \"Nft id is invalid\") ;\r\n        _;\r\n    }\r\n}\r\n",
  "sourcePath": "E:\\Truffle-Ganache-NFT-Martkeplace\\nft-truffle-contract\\contracts\\SOLSMarketplace.sol",
  "compiler": {
    "name": "solc",
    "version": "0.8.11+commit.d7f03943.Emscripten.clang"
  },
  "schemaVersion": "3.4.4",
  "updatedAt": "2022-06-24T09:02:16.280Z",
  "networkType": "ethereum",
  "devdoc": {
    "kind": "dev",
    "methods": {
      "owner()": {
        "details": "Returns the address of the current owner."
      },
      "renounceOwnership()": {
        "details": "Leaves the contract without owner. It will not be possible to call `onlyOwner` functions anymore. Can only be called by the current owner. NOTE: Renouncing ownership will leave the contract without an owner, thereby removing any functionality that is only available to the owner."
      },
      "transferOwnership(address)": {
        "details": "Transfers ownership of the contract to a new account (`newOwner`). Can only be called by the current owner."
      }
    },
    "version": 1
  },
  "userdoc": {
    "kind": "user",
    "methods": {},
    "version": 1
  }
}